:020000040800F2
:10000000F0FF002071020008A9A60008516E000848
:10001000A5A60008110E0008351001080000000018
:1000200000000000000000000000000021D60008D1
:10003000D51400080000000061B300086DDC000862
:100040008B0200088B0200088B0200088B0200085C
:100050008B0200088B0200088B020008D9140008EC
:100060008B0200088B0200088B0200088B0200083C
:100070002D1200088B0200088B0200088B0200087A
:100080008B0200088B0200088B0200088B0200081C
:10009000150E00088B0200088B0200088B02000876
:1000A0008B02000859DD00088B0200088B02000853
:1000B00079DD000885DD00088B0200088B0200084E
:1000C0008B0200088B0200088B0200088B020008DC
:1000D0008B02000891E500088B020008ADE50008DE
:1000E0008B0200088B0200088B0200088B020008BC
:1000F0008B0200088B0200088B02000839120008EE
:100100008B0200088B0200088B0200088B0200089B
:100110008B0200088B0200088B02000891DD0008AA
:1001200045120008511200085D120008691200080B
:100130008B0200088B0200088B0200088B0200086B
:10014000210E00088B0200088B02000849AC000851
:1001500075120008811200088D120008C9E5000818
:100160008B0200088B0200088B0200088B0200083B
:100170008B0200088B0200088B02000800000000C0
:100180008B0200088B02000800F002F800F061F812
:100190000AA090E8000C82448344AAF10107DA45E2
:1001A00001D100F056F8AFF2090EBAE80F0013F0D3
:1001B000010F18BFFB1A43F001031847E0B201001A
:1001C00000B301000A444FF0000C10F8013B13F09B
:1001D000070408BF10F8014B1D1108BF10F8015BA0
:1001E000641E05D010F8016B641E01F8016BF9D193
:1001F00013F0080F1EBF10F8014BAD1C0C1B09D1EA
:100200006D1E58BF01F801CBFAD505E014F8016B5B
:1002100001F8016B6D1EF9D59142D6D370470000ED
:100220000023002400250026103A28BF78C1FBD8FF
:10023000520728BF30C148BF0B607047782900F0D3
:100240001181002070471FB519F079FE1FBD10B550
:1002500010BD00F089FA1146FFF7F5FF14F006FD16
:1002600000F0A7FA03B4FFF7F2FF03BC00F0ACFA0A
:100270000948804709480047FEE7FEE7FEE7FEE73A
:10028000FEE7FEE7FEE7FEE7FEE7FEE70448054976
:10029000054A064B7047000045DD0008890100084B
:1002A000F0BF0020F0FF0020F0DF0020F0DF002092
:1002B00053EA020C00F069802DE9F04B4FF0000684
:1002C000002B1FBFB3FA83F503FA05F424FA05F6F1
:1002D0005E4012BF1643B2FA82F502FA05F4C5F188
:1002E00020051EBF22FA05FC44EA0C04203556EA1C
:1002F000044C4FEA144418BF641C4FF000084FF040
:100300000009904271EB030C39D3002919BFB1FAEF
:1003100081F701FA07F6B0FA80F700FA07F6C7F19D
:1003200020071EBF20FA07FC46EA0C062037B6FB62
:10033000F4FCA7EB0507103F07F01F0BCBF12006DD
:100340002CFA06F60CFA0BFB44BFB3460026202F0E
:10035000A4BF5E464FF0000B5BEA060C08BF4FF0EF
:10036000010B19EB0B0948EB0608ABFB027C06FB03
:1003700002CC0BFB03CCC01B71EB0C01C1E70B469D
:10038000024641464846BDE8F08B13B5084318BF06
:100390004FF0FF300146AFF30080BDE81C407047CE
:1003A00053EA020C23D010B54C1084EA530404D550
:1003B0004042C1F1000138BF491E1B4204D55242E0
:1003C000C3F1000338BF5B1EFFF772FF14F0804FCC
:1003D00004D04042C1F1000138BF491E14F0004F63
:1003E00004D05242C3F1000338BF5B1E10BD13B5E9
:1003F00040424FF0000070EB0104B8BF012001F053
:10040000004100281CBF6FF000414FF0FF30AFF3F8
:1004100000801CBD70B5044685690068C10601D521
:10042000302600E02026C00707D070BDD4E90121A6
:1004300030469047206A401C20626D1EF6D570BD84
:1004400070B5044685690078C00707D170BDD4E94E
:10045000012120209047206A401C20626D1EF6D5A5
:1004600070BD000070B504460D4621461068AFF31C
:1004700000802188090502D50F4A7A4402E00E4A1D
:100480007A440E32002104F1240305E000F00F0647
:100490000009965D5E54491C0028F7D1207800239E
:1004A000000704D5702D02D009B102231132204675
:1004B000BDE8704000F0F7B8A89B010010B5431CE0
:1004C00002E010F8011B71B18107FAD14FF001323F
:1004D00002C88C1A8C4314EAC211F9D0C01A0A0659
:1004E00003D0C01E10BDC01A10BD0A0401D0801E6A
:1004F00010BD0902FCD0401E10BD032A40F230801E
:1005000010F0030C00F0158011F8013BBCF1020F54
:10051000624498BF11F801CB00F8013B38BF11F8D5
:10052000013BA2F1040298BF00F801CB38BF00F8EC
:10053000013B11F0030300F02580083AC0F0088069
:1005400051F8043B083A51F804CBA0E80810F5E74D
:10055000121D5CBF51F8043B40F8043BAFF3008030
:10056000D20724BF11F8013B11F801CB48BF11F8A5
:10057000012B24BF00F8013B00F801CB48BF00F875
:10058000012B704710B5203AC0F00B80B1E818502D
:10059000A0E81850B1E81850A0E81850203ABFF46D
:1005A000F5AF5FEA027C24BFB1E81850A0E818500C
:1005B00044BF18C918C0BDE810405FEA827C24BF60
:1005C00051F8043B40F8043B08BF7047D20728BFEE
:1005D00031F8023B48BF11F8012B28BF20F8023B3D
:1005E00048BF00F8012B704702F0FF0343EA0322E3
:1005F00042EA024200F024B84FF000020429C0F0A1
:10060000128010F0030C00F01B80CCF1040CBCF144
:10061000020F18BF00F8012BA8BF20F8022BA1EB96
:100620000C0100F00DB85FEAC17C24BF00F8012B7B
:1006300000F8012B48BF00F8012B70474FF0000273
:1006400000B5134694469646203922BFA0E80C50C8
:10065000A0E80C50B1F12001BFF4F7AF090728BFA3
:10066000A0E80C5048BF0CC05DF804EB890028BF1F
:1006700040F8042B08BF704748BF20F8022B11F048
:10068000804F18BF00F8012B7047704770477047C4
:1006900010B500F061F8006810BD10B5044600F018
:1006A0005BF8046010BD2DE9F0470D46994692466F
:1006B000044600F124080168880604D5E06921F0A9
:1006C0001001216000E00120A84201DD471B00E08D
:1006D0000027A1697A1902EB0900081AA0612078A5
:1006E000C00602D42046FFF795FE002608E0D4E9B4
:1006F00001211AF806009047206A401C761C2062EF
:100700004E45F4DB2078C0060AD52046FFF782FE6E
:1007100006E0D4E9012130209047206A401C206285
:10072000381EA7F10107F4DC07E0D4E9012118F82D
:1007300005009047206A401C2062281EA5F1010593
:10074000F3DC2046FFF77CFE2078000602D502206D
:10075000BDE8F0870120FBE7004870473005002026
:1007600000487047300500207546FFF7F9FFAE4698
:1007700005006946534620F00700854618B020B5AD
:10078000FFF784FDBDE820404FF000064FF0000762
:100790004FF000084FF0000BAC46ACE8C009ACE8E5
:1007A000C009ACE8C009ACE8C00921F007018D46DA
:1007B000704710B50446AFF300802046BDE81040F6
:1007C000FFF750BD7047000001491820ABBEFEE79F
:1007D000260002000020C4F202001021012202F0D3
:1007E00033BB00000020C4F202001021002202F0FE
:1007F0002BBB00007047000040F20040C4F2020032
:100800000121012202F020BB40F20040C4F20200AC
:100810000121002202F018BB7047000070B50028CB
:1008200056D04EF2180145F20032CEF20001C0F26D
:10083000070210F0030EA0F1010C3BD051F8043C6C
:100840000D68002408E000BF2C44A41BB54298BFEB
:100850001C44944235460DD20E68B542F4D10E6860
:10086000B542F1D10E68B542EED10E68B542F3D073
:10087000EAE700BFBEF1010F634625D051F8043C02
:100880000D68002408E000BF2C44A41BB54298BFAB
:100890001C449442354613D20E68B542F4D10E681A
:1008A000B542F1D10E68B542EED10E68B542F3D033
:1008B000EAE700BF03461FFA8CF0032830D207E0B6
:1008C000BEF1020F06D1831E1FFA8CF0032827D237
:1008D00070BD00BF51F8043C0E68002408E000BF62
:1008E0003444641BAE4298BF1C4494422E460DD241
:1008F0000D68AE42F4D10D68AE42F1D10D68AE4242
:10090000EED10D68AE42F3D0EAE700BFC31E1FFA76
:100910008CF0032804D2DBE7043B180408BF70BD49
:1009200051F8040C0E68002408E000BF3444641B36
:10093000AE4298BF044494422E460DD20D68AE429A
:10094000F4D10D68AE42F1D10D68AE42EED10D6822
:10095000AE42F3D0EAE700BF51F8040C0E68002461
:1009600008E000BF3444641BAE4298BF0444944284
:100970002E460DD20D68AE42F4D10D68AE42F1D1D3
:100980000D68AE42EED10D68AE42F3D0EAE700BF8B
:1009900051F8040C0E68002408E000BF3444641BC6
:1009A000AE4298BF044494422E460DD20D68AE422A
:1009B000F4D10D68AE42F1D10D68AE42EED10D68B2
:1009C000AE42F3D0EAE700BF51F8040C0E680024F1
:1009D0000AE000BF3444641BAE4298BF0444944212
:1009E0002E46BFF499AF00BF0D68AE42F2D10D683C
:1009F000AE42EFD10D68AE42ECD10D68AE42F3D0FD
:100A0000E8E7000080B54EF21801CEF20001C0EB1D
:100A1000001051F804CC4FEA401E0868002309E09A
:100A200003449B1A904298BF63447345104628BF05
:100A300080BD00BF0A689042F2D10A689042EFD1AF
:100A40000A689042ECD10A689042F3D0E8E70000CF
:100A500010B5FFF7CFFEFFF7DFFE13F0C7F804462F
:100A600013F0ECF9204310BD2DE9F04F83B0029252
:100A70000E460190FFF7B6FE922000F0C5F89220D6
:100A800000F0C2F8552000F0BFF88046552000F075
:100A9000BBF88346552000F0B7F88246552000F099
:100AA000B3F80446552000F0AFF80746552000F093
:100AB000ABF80546FFF78EFE48EA0B2040F200092E
:100AC00000B2C2F2000900EE100A99ED001AB8EE69
:100AD000C00A4AEA042021EE000A00B286ED000AAC
:100AE00000EE100A47EA052000B299ED001A02EE66
:100AF000100AB8EEC00AB8EEC22A21EE000A21EEB2
:100B0000021A86ED010A86ED021AFFF77DFE8020AB
:100B100000F07AF8552000F077F80646552000F0EE
:100B200073F8552000F070F88246552000F06CF8FC
:100B30000546552000F068F88346552000F064F81B
:100B40000446552000F060F80746552000F05CF898
:100B50008046FFF751FE0F2E25D14AEA052000B24C
:100B600000EE100A99ED011AB8EEC00A01994BEA9D
:100B7000042021EE000A00B281ED000A00EE100A06
:100B800047EA082000B299ED011A02EE100AB8EE09
:100B9000C00AB8EEC22A21EE000A21EE021A81ED47
:100BA000010A81ED021AFFF71DFEA22000F02CF8C9
:100BB000A22000F029F8552000F026F80446552020
:100BC00000F022F80546FFF705FEE00040EA551068
:100BD0004FF600010022CFF6FF71B2EB902F18BF45
:100BE000084300EE100AB8EEC00AB4EE001A20EE78
:100BF000010AB3EE071A029830EE010A80ED000AEE
:100C000003B0BDE8F08F000080B582B08DF807001A
:100C100044F67C704FF47A7CC2F200000DF10701BB
:100C20000DF106020123CDF800C004F0A7F89DF8ED
:100C3000060002B080BD000080B5006841F20041AE
:100C4000C4F20001884218BF80BD40F2C412C2F253
:100C50000002107840F201210130107044F6D47087
:100C6000C2F2000000F0A8F940F27C61C2F200017B
:100C700042F21C3091ED021AC2F2000090ED0E0A11
:100C8000D0ED100ABCEEC11A11EE100A01210122AA
:100C9000BDE8804010F0F4BEF0B583B004460068B3
:100CA00044F60007C4F20007B84237D007F54841C0
:100CB00088426CD007F54C41884240F0A78045F24D
:100CC000B420C2F2000000680168C90640F19E80AD
:100CD00000210091016845F2B42400914068C2F2FD
:100CE000000400900098204605F00CFA44F6D81055
:100CF000C2F20000006842F200254068C2F200051E
:100D0000C043C1B22846FFF777FC20462946FF22A0
:100D100003B0BDE8F04005F065BF00BF45F26C20B0
:100D2000C2F2000000680168C9066FD50021029177
:100D3000016802914168029102990168406845F298
:100D40006C20C2F2000005F0DDF944F67810C2F222
:100D5000000000684068132809D140F2536043F650
:100D60003861C2F20000C2F200010AF04BFB45F20A
:100D70006C2040F25361C2F20000C2F20001252251
:100D800005F030FF206807F54841884292D145F2CE
:100D90002420C2F2000000680168C90636D500218F
:100DA0000191016845F2242501914168C2F20005D4
:100DB0000191019901684068284605F0A3F944F6BD
:100DC000B800C2F20000006844F272314068C2F21A
:100DD0000001C0F1150040F266660870C2F200061C
:100DE00043F6605143F6B452C2F20001C2F200026F
:100DF000304610F021F928463146152205F0F2FE62
:100E0000206807F54C4188423FF459AF03B0F0BD6C
:100E1000FEE7000044F2E060C2F2000001F044B9D5
:100E200044F20870C2F2000001F03EB9B0B588B0DB
:100E3000044600254FF400600690CDE902052046E7
:100E4000CDE900550795CDE9045507F01BFE0028B4
:100E50005BD0204607F098FF002859D001AB204610
:100E60002021232208F062FB6B4620462421272202
:100E700008F05CFB07AB20460021032208F056FB7C
:100E800006AB20460421072208F050FB05AB2046A4
:100E900008210B2208F04AFB04AB20461021132244
:100EA00008F044FB03AB20461421172208F03EFB58
:100EB00002AB204618211B2208F038FB2046602197
:100EC000042208F0F3FA20467021012208F0EEFA1D
:100ED00020462A21002208F0E9FA20462921912201
:100EE00008F0E4FA20462821012208F0DFFA204623
:100EF0002C21002208F0DAFA20462B21012208F0EA
:100F0000D5FA204608F014F90546284608B0B0BDC9
:100F10000025284608B0B0BDF0B585B000270C46C6
:100F200005468DF810700397CDE9017707F074FD41
:100F300040283ED30646400606D406F0C00080286E
:100F400008D1942101E000BF902101AA28460D2379
:100F500007F06EFE06F01800102815D19DF8052048
:100F60009DF804101C2602F0030706EAD20242EAAA
:100F700041119DF8063039449DF80700090441EA03
:100F80000321022207E000BF9DF804009DF8052020
:100F9000C100500901220843C4F80100DDE9020143
:100FA0000127C4F805009DF810002270C4F809104C
:100FB0006073384605B0F0BD45F2D05CC2F2000C5B
:100FC0000123CCF8011008218CF800308CF80510B2
:100FD00051681268CCF80A106146CCF8062000F07F
:100FE00001B80000F0B581B040F2D8550446C2F215
:100FF00000050020286020460E4607F05DFE4107F0
:10100000287113D43178D6F80100022924D101BA0D
:10101000090CE0226980C0F3014102EA5032114418
:1010200008316970C0F347501CE000BFC1061DD4F1
:101030003178D6F8010002292ED101BA090CE0223C
:101040006980C0F3014102EA5032114408316970ED
:10105000C0F3475026E000BF002169804101C0F382
:10106000D7006970812740212CE000BF40061DD4C5
:101070003178D6F8010002291CD101BA090CE0220E
:101080006980C0F3014102EA5032114408316970AD
:10109000C0F3475014E000BF002169804101C0F354
:1010A000D7006970822742210CE000BF002001B008
:1010B000F0BD00BF002169804101C0F3D700697015
:1010C0008427442173792870063620462A460096E4
:1010D00007F026FD2046394607F024FE012001B026
:1010E000F0BD000070B58AB044F2E0640120002138
:1010F000C2F200046D460E260890CDE90610CDE937
:101100000011CDE90211CDE90411204629460996C6
:1011100000F0BEFE204601F095FA2046022100F0C4
:101120004DFE44F20874C2F2000420462946099696
:10113000059600F0ADFE204601F084FA204602211B
:1011400000F03CFE0AB070BD0020704700207047E0
:1011500010B544F27434C2F2000443F29041C2F27A
:101160000001204600220DF00BFC42F69041C2F235
:10117000000120460DF0F6FB002010BDB0B504467E
:1011800040B1086830B140F28861C2F200012046E7
:1011900010F042FC44F27435C2F2000528462146A4
:1011A0000DF0E0FB28460DF0B7FB0020B0BD0000BD
:1011B0000020704710B544F27432C2F20002D2F837
:1011C000BC22D2F81432002B1CBF012010BD44F207
:1011D0007434C2F200040A46014620460DF0D0FBEA
:1011E0002046BDE810400DF059BC000010B582B09B
:1011F000DDE904EC140A8DF801201A0A8DF80220AA
:101200004FEA1E228DF804204FEA1C228DF806209A
:101210006A468DF800408DF803308DF805E08DF8B2
:1012200007C012F015FF02B010BD000044F67810A0
:10123000C2F2000001F014BB44F2F870C2F20000E8
:1012400001F00EBB44F23870C2F2000001F008BB9E
:1012500044F6D810C2F2000001F002BB44F6580078
:10126000C2F2000001F0FCBA44F29870C2F2000031
:1012700001F0F6BA44F6B800C2F2000001F0F0BA8C
:1012800044F63820C2F2000001F0EABA44F6181021
:10129000C2F2000001F0E4BA10B582B041F2040ECF
:1012A000CEF2000EDEF80010009140F29051C2F232
:1012B0000001DDF800C002680B68009C0460DEF8E5
:1012C0000000019001980C69A04202D2C868013068
:1012D000C860ACEB020000EE100A01EE103A019873
:1012E000B8EE400AB8EE411A80EE010A086102B079
:1012F00010BD00002DE9F04782B041F20400CEF2AB
:101300000000016840F2905A00910068C2F2000AA1
:1013100001900199DAE90302002791423CBF0130B4
:10132000CAF80C0001990023CAF81010009E4FF073
:10133000FF31E0FB0167DAE90059DAF8088030464E
:1013400039462A46CAE90667FEF7B2FF0446A0FB03
:10135000050201FB0521351A67EB010628463146D7
:101360004A460023CAF82040FEF7A2FF0746AAF823
:10137000240080B200FB09F0281A66F10001424601
:101380000023FEF795FF4FF47A71614382B211FAA0
:1013900087F101EE102A9FED082A00EE101AB8EE30
:1013A000411AB8EE400A21EE021A31EE000AAAF8FC
:1013B000260002B0BDE8F0876F12833A2DE9F047AE
:1013C00082B041F20400CEF20000016840F2905A6F
:1013D00000910068C2F2000A01900199DAE9030263
:1013E000002791423CBF0130CAF80C00019900234C
:1013F000CAF81010009E4FF0FF31E0FB0167DAE9F8
:101400000049DAF80880304639462246CAE90667BC
:10141000FEF74EFF0546A0FB040201FB0421341A2F
:1014200067EB0106204631464A460023CAF82050A1
:10143000FEF73EFF87B2AAF8240007FB09F0201A46
:1014400066F1000142460023FEF732FF024643F6F2
:1014500009504FF47A716843794301EB801010FA18
:1014600082F00021AAF8262002B0BDE8F087000033
:1014700010B54EF6FC5CCEF2000CDCF8002044F215
:101480004023C0F20F0342F08072584344F6D35316
:10149000CCF8002041F20002C1F26203CEF2000259
:1014A0004FF0000CA0FB033EC2F804C04DF6836170
:1014B0001368C4F21B31A0FB011443F00101116059
:1014C00040F29051C2F200014FEA9E12A30C81E853
:1014D0000D1010BD7047000010B544F6D474C2F270
:1014E000000445F2B451C2F20001204610F018FB8E
:1014F000022001F0BFFB2046BDE8104010F020BBE9
:1015000072B600BFFEE700002DE9F041A820FFF70A
:10151000AFFFFFF7E7FD44F6D470C2F20000FFF71B
:1015200085FC40F25267C2F200073C4604F8140BF7
:1015300045F29410C2F2000003F07AFF45F22C004D
:10154000C2F2000003F074FF45F20410C2F2000082
:1015500003F06EFF45F2DC10C2F2000000214FF0F4
:10156000000804F07DFA44F6B805C2F200052846EA
:1015700001F030F944F61816C2F20006304601F0C8
:1015800029F9284601F04CFA304601F049FA45F2B3
:101590002425C2F20005284604F0B4FD2846214661
:1015A000152204F079FCE86B44F678140068C2F266
:1015B0000004016821F008010160204601F00AF9E9
:1015C000204601F02DFA45F26C24C2F200042046B8
:1015D00004F098FD20682522C16841F01001C16027
:1015E000791C204605F0FEFA44F6D814C2F2000435
:1015F000204601F0EFF844F63825C2F200052846EF
:1016000001F0E8F8204601F00BFA284601F008FA4C
:1016100045F2B424C2F20004204604F073FD42F205
:101620006861C2F2000120464FF4807204F034FC7D
:10163000E06B0068016821F00801016008F0F8FF24
:1016400040F63C04C4F20004322020604FF4FA70EB
:1016500001F0E8FAC4F80080BDE8F08110B52DED86
:10166000028B82B004468069B0EE408A019001A8E6
:10167000FFF712FE206AE16802EE100A04EE101A6B
:1016800020EE081A30EE023A22EE042A81EE031A06
:1016900082EE032A10EE100AE061208E032871EE1C
:1016A000020A10EE901AE16006D304F1320008F04D
:1016B000FDFFF0EE400A06E0206901EE100A30EE70
:1016C000C11AC1EE000AB4F85C0010EE901A0328AB
:1016D00061620BD3E16904F15E0000EE101A08F0BC
:1016E000E5FF606A00EE900A0AE000BFE06AE16987
:1016F00000EE100A30EEC00A01EE101A80EE010A68
:1017000010EE100AA06220686168E368A26801EE2A
:10171000100A02EE103A03EE101A23EE203A21EEE0
:10172000021A02EE102AD4F88C1031EE031A22EEBF
:10173000000A30EE010A01EE101A10EE100AF1EE66
:10174000410AC4F8880013F05FF810EE100AC4F8DC
:101750008800E068616A2061E16202B0BDEC028B42
:1017600010BD0000B0B504461D4610EE100A002C56
:10177000C4F88C0018BF002908D19FED190A002079
:1017800020606060C4F88C0006E000BF086820603C
:101790004868606091ED020A10EE100AA06010EE39
:1017A000900A032A20622286A4F85C5006D2032DF8
:1017B0000BD20020A061C4F88800B0BD04F1320053
:1017C000114609F01BFA032DF3D304F15E002946FC
:1017D00009F014FA0020A061C4F88800B0BD00BF71
:1017E0000000000042F20040C2F2000090ED690AE1
:1017F0007047000042F20040C2F2000090ED680A1B
:101800007047000042F20040C2F2000090ED6A0A08
:101810007047000042F20040C2F2000090ED6B0AF7
:101820007047000070B581B00022009290F83C2013
:10183000012A03D10221084601B070BDD1F800E0B1
:101840000122BEF10A0F80F83C200BD31FFA8EF262
:101850005200066812FA8EF2A2F11E0306F10C0283
:1018600005E000BF06680EEB4E0306F110024FF0D4
:10187000070C15680CFA03F4A54315608D6814680D
:1018800005FA03F3234313604968062906D801EBE0
:101890008101053906F134020AE000BF0C2901EB91
:1018A000810187BF413906F12C02233906F130024C
:1018B0001F2314688B4024EA030342F2043C1360A4
:1018C000C4F2010C1FFA8EF3146803FA01F1ACF5AF
:1018D000417321439E4211603ED1BEF1120F07D1E8
:1018E000DCF8001041F48001CCF8001034E000BFB7
:1018F0002EF0010110292FD1DCF80010BEF1100FDD
:1019000041F40001CCF8001026D140F2C011C2F21F
:10191000000109684DF68362C4F21B32A1FB02127A
:10192000910C01EB8101490000910099A1B100994E
:1019300001390091009979B100990139009100991C
:1019400051B1009901390091009929B100990139EB
:10195000009100990029EAD1002180F83C10084646
:1019600001B070BD0068C06C70470000002804BF63
:101970000120704710B50446006C00283ED0206C52
:10198000C00645D4206C41F202118843023042F275
:1019900004312064C4F20101086820F4403008607A
:1019A0000A6894E809101A43D4F810E00A60416804
:1019B000012321F4807141604168C0F6007341EA5F
:1019C0000E214160416821F040714160416841EA67
:1019D0000C014160816821F400618160E1688268E6
:1019E00011438160A16A8268994222F0706282602C
:1019F000826813D122F0405119E000BF204600F068
:101A000065F80020606484F83C00206CC006B9D5FD
:101A10000120002184F83C1010BD00BF11438160FB
:101A2000816821F040518160E16A826811438160E0
:101A3000816821F0020181608168227E94F8203063
:101A400041EA42018160416883B141F40061416033
:101A500041684EF2000221F460414160616ACFF6B4
:101A6000FF72436802EB4131194301E021F4006148
:101A70004160C16A40F2000C21F47001C162E26968
:101A80006169CFF6F07CC36A0CEB02521A43C26262
:101A9000826822F40072826094F83020836843EAFE
:101AA00042228260826822F480628260826842EA16
:101AB0008121816000206064216C012262F30101B8
:101AC0002164002184F83C1010BD000080B586B070
:101AD000006842F20022C4F2010200219042059106
:101AE000049117D042F20001C4F20101884239D1B9
:101AF0000020009043F64400C4F20200016841F463
:101B000080710160006800F480700090009806B059
:101B100080BD00BF43F644000091C4F20200026899
:101B200042F480620260026802F480620092009ACD
:101B3000009150F8142C42F0200240F8142C50F878
:101B4000140C00F02000009000984FF48060019089
:101B50000320CDE9020141F20040C4F2020001A9D4
:101B600001F094F806B080BD70B5044600680D46DB
:101B70008268520544BF80685FEAC05038D401F0E3
:101B800069F921680A68920749D40646681C3CD066
:101B9000DDB90868800721D5086880073FD4086848
:101BA00080071BD50868800739D40868800715D5D9
:101BB0000868800733D4086880070FD50868800755
:101BC000E7D52CE00868800729D401F043F9801B91
:101BD0002168A842F6D908688007F3D4206C40F049
:101BE00004002064002084F83C00032070BD00BF86
:101BF000206C40F020002064002084F83C0001208C
:101C000070BD00BF0868800709D40868800706D443
:101C1000086880075CBF08685FEA8070F2D56FF0E3
:101C200012000860206C40F400702064886810F096
:101C3000405F01D1207E08B1002070BDC86A10F459
:101C4000700F02D088684005F6D4206C20F48070B4
:101C50002064206CC004EFD4206C40F001002064AC
:101C6000002070BD10B581B00021009190F83C10AB
:101C7000012903D1022001B010BD00BF0468012179
:101C800080F83C10214651F8083FDB0729D10B684A
:101C90004DF6836243F001030B6040F2C013C2F2C1
:101CA00000031B68C4F21B32A3FB02239A0C02EB55
:101CB00042020092009AA2B1009A013A0092009A60
:101CC0007AB1009A013A0092009A52B1009A013A10
:101CD0000092009A2AB1009A013A0092009A002AD2
:101CE000EAD10A68036CD2070AD143F010010164FB
:101CF00000F1440101200A681043086056E000BF6B
:101D000040F2017223EA020202F580720264626804
:101D1000520504D5026C012363F30D320264026C98
:101D20004FF0000E0023D20444BF426C22F00603A1
:101D300042F2043C436480F83CE06FF02200C4F2BD
:101D4000010C2060DCF80000C0060DD0ACF541703D
:101D500084422BD14FF60450CFF6FF705CF80000A0
:101D600010F0405F22D125E042F20000C4F20100F1
:101D7000844217D042F20020C4F2010084420DD008
:101D800042F20010C4F2010084420FD1DCF80000DE
:101D9000C00607D0ACF58270844207D1DCF80000A1
:101DA000C00603D4086810F0405F03D0002001B0E3
:101DB00010BD00BF4FF080409DE7000090F820204C
:101DC000013A012A08D8006800F1140200201368C3
:101DD00019431160704700BF00F1240201204FF445
:101DE00080211368194311607047000010B590F806
:101DF00020E0D0F800C0AEF1010EBEF1010FDCF81A
:101E000008E00FD81EF0E05F16D0CEF3016E01207F
:101E100000FA0EF018608B68C3B1486843EAC0034B
:101E200016E000BF00F1240101204FF480220B686E
:101E30001A430A6010BD00BF00F1240101204FF4D5
:101E400000120B681A430A6010BD00BF0868430502
:101E5000D1E9030403430CEB0E10C0F88031C0F845
:101E60008441097D012905D100F5C2710B6843F455
:101E700080730B605168C0F88C11126800F5C07156
:101E8000C0F88821002001220B681A430A6010BDA7
:101E9000B0B590F82020013A012A2FD846F2006010
:101EA000C4F20000026842F001020260026822F4FB
:101EB0007C520260D1F814E0CC694A6A0368012CB4
:101EC00043EA022202600EF01F024FF0010303FA00
:101ED00002F2C3696FEA020C23EA0203C36113D062
:101EE0002CBBC36803EA0C03C360CB688C8844EA4C
:101EF000034300EBCE0423640B4611E0416A41F436
:101F0000802141620120B0BDC3681343C3600B68E8
:101F10008C8844EA034300EBCE04236401F10C03F4
:101F20008C681B8843EA044300EBCE046364436877
:101F30008D6943EA0204D1F810E0096A002D08BF58
:101F400003EA0C0444604369BEF1000F43EA020453
:101F500008BF03EA0C040129446102D1C16911439D
:101F6000C161016821F0010101600020B0BD0000E5
:101F70007047000010B590F82040013C012C7BD840
:101F8000D0F800C0002900F08180DCF81040A407E0
:101F900000F081800CEB011CDCF8B0410CF5D87E20
:101FA00014F004049460DCF8B04119BFE4085460F4
:101FB000640D1460DEF800400CF5DA7E04F00204D3
:101FC000D460DCF8B44124075ABFDEF8004004F0C6
:101FD0000F0408241461DEF800400029C4F307242C
:101FE0009461DEF800404FEA14445461DCF8B821F3
:101FF0001A70026802EB0112D2F8B8214FEA1222DD
:102000005A70026802EB0112D2F8B8214FEA12426C
:102010009A70026802EB0112D2F8B8214FEA1262FC
:10202000DA70026802EB0112D2F8BC211A71026860
:1020300002EB0112D2F8BC214FEA12225A71026857
:1020400002EB0112D2F8BC214FEA12429A710268E7
:1020500002EB0112D2F8BC214FEA1262DA71006879
:1020600014BF00F1100100F10C01002020220B68C8
:102070001A430A6010BD00BF00F1240101204FF493
:1020800080220B681A430A6010BD00BFDCF80C40C8
:10209000A4077FF47FAF00F1240101204FF4001268
:1020A0000B681A430A6010BD2DE9F04F81B0044659
:1020B00000684669D0F804908768D0F80CB0D0F872
:1020C00010A0D0F81880F10704D1002530071DD4E6
:1020D00024E000BFF90710D00121BA07816009D4BC
:1020E000780700F1AF80380700F1B680204600F095
:1020F000D7FA02E0204600F0D5FA0025F80500F1F5
:102100008780F80300F1B180300707D51BF010007D
:1021100004D0206845F400751021C160700708D50F
:102120001BF0080005D020680821C160204600F09F
:10213000F5F9B00706D52068C068800702D02046B0
:1021400000F0EEF9700607D51AF0100004D02068F0
:1021500045F4806510210161B00608D51AF0080029
:1021600005D0206808210161204600F065FAF006DC
:1021700006D520680069800702D0204600F05EFA8C
:10218000B00308D519F0100005D020681021416077
:10219000204600F055FAF00308D519F0080005D0E4
:1021A000206808214160204600F086FA300440F1A2
:1021B0009B805FEA497040F1948006F4807008EAE1
:1021C000102028435FEA8871014648BF41F00201B0
:1021D000B20558BF01465FEA48700D4648BF45F05A
:1021E0000405700558BF0D46300540F17A8018F09F
:1021F000700000F076801038000905286CD8DFE800
:1022000000F003595D61656945F0080564E000BFB1
:1022100020684FF48071BA0581600BD4780515D41D
:1022200038051DD4204600F03FFAF8037FF56CAF67
:102230001BE000BF204600F039FAF8037FF564AFD9
:1022400013E000BF4FF4006558E700BF05F50055E7
:10225000F8037FF559AF08E04FF480554EE700BF13
:1022600005F58045F8037FF54FAF20684FF48031C6
:10227000BA0381600AD4780310D4380314D42046FA
:1022800000F016FA30073FF541AF47E7204600F06F
:1022900011FA30073FF53AAF40E700BF05F50045BA
:1022A00030073FF533AF39E705F5803530073FF5A7
:1022B0002DAF33E745F010050EE000BF45F02005D7
:1022C0000AE000BF45F0400506E000BF45F080058C
:1022D00002E000BF45F480752068816921F070013B
:1022E000816120680421416055B1606A40EA0501BE
:1022F0002046616201B0BDE8F04FFFF739BE00BF74
:1023000001B0BDE8F08F0000B0B5C8B1044690F848
:10231000200010B9204600F071F82068016841F0F3
:102320000101016000F096FD054600BF206841688C
:10233000C90707D100F08EFD401B0B28F6D312E031
:102340000120B0BD016821F00201016000F082FDB2
:10235000054600BF2068416889070DD500F07AFD69
:10236000401B0B28F6D3606A052140F40030606200
:10237000012084F82010B0BD217E0268012922F0DE
:10238000800208BF80320260617E0268012922F06B
:10239000400208BF40320260A17E0268012922F09B
:1023A000200208BF20320260E17E0268012922F08B
:1023B000100218BF10320260217F0268012922F04A
:1023C000080208BF08320260617F0268012922F01A
:1023D000040208BF04320260D4E901C2D4E9033523
:1023E00061691A432A431143ACF101021143C161EF
:1023F00000200121606284F82010B0BD10B586B0C5
:10240000006846F60002C4F2000200219042CDE9C5
:102410000411CDE90211019134D046F20041C4F219
:102420000001884277D142F21831C2F200010A68F5
:1024300043F64000C4F20200531C0B6052B9002165
:102440000091016841F000710160016801F00071C4
:10245000009100990021009150F8101C142441F0C3
:10246000080140F8101C50F8100C00F00800009013
:1024700000980320019040F20040C4F2020000F5F1
:10248000006035E043F64000C4F2020000910168AC
:1024900041F080610160016801F080610091009964
:1024A00042F21831C2F200010A68531C0B6052B9A3
:1024B00000210091016841F000710160016801F0A4
:1024C0000071009100990021009150F8101C4024E7
:1024D00041F0020140F8101C50F8100C00F002000E
:1024E000009000986020019040F20040C4F2020089
:1024F00002210291002103910321049109210591F8
:1025000001A900F0C3FB20460521002200F060FD78
:10251000204600F04DFD06B010BD000070470000E1
:1025200010B58AB003AA6B4600210446FFF722FDCE
:1025300044F2E060C2F2000084421DD044F2087010
:10254000C2F20000844214D1039840F2053188425F
:102550000FD140F66030C2F2000041F23041084431
:10256000694612F09DF845F23240C2F200000021A7
:10257000C1700AB010BD00BF039840F2022188422A
:1025800020DCB0F5A17F35D040F202218842F0D1A5
:1025900040F66030C2F2000000F59D60694609F027
:1025A000FBFADDE9000145F2C852C2F20002C2E9BD
:1025B000000145F23240C2F20000002101710AB070
:1025C00010BD00BF40F20321884223D0B0F5017F47
:1025D000CFD140F66030C2F2000000F5E3606946FA
:1025E00009F0DAFA45F23240C2F2000000214171EE
:1025F0000AB010BD40F66030C2F20000694606F035
:10260000BBF945F23240C2F20000002181700AB0ED
:1026100010BD00BF40F66030C2F2000000F6481066
:10262000694609F075FA45F23240C2F20000002115
:1026300081710AB010BD00007047000070470000B3
:1026400070470000B0B5044690F8200001281DD165
:10265000022084F820002068016821F00101016057
:1026600000F0F8FB054600BF20684068C00713D0A3
:1026700000F0F0FB401B0B28F6D3606A40F40030FA
:102680006062052084F820000120B0BD606A40F43B
:10269000002060620120B0BD00206062B0BD00007B
:1026A000704700007047000070470000704700004E
:1026B000704700007047000070470000002804BF0A
:1026C0000120704710B50446407918B101206071AF
:1026D000002010BD00202071204600F005F80120E8
:1026E0006071002010BD000081B043F63001C4F2DB
:1026F00002010068A1F50362904201D001B0704769
:1027000000200090086840F480500860086800F4D9
:1027100080500090009801B07047000070B5866D41
:10272000044600F097FB94F8351002292ED1054697
:102730002068216C026822F016020260426922F0D1
:102740008002426109B9A16C19B1016821F0080148
:102750000160016821F0010101600068C00708D034
:1027600000F078FB401B052818D820680068C007D7
:10277000F6D1E06D3F2101FA00F0B060012084F84D
:1027800035000020002184F8341070BD8020606581
:102790000120002184F8341070BD00BF2020606546
:1027A000032084F83500002184F8341070BD000047
:1027B00090F83510022909D1052180F835100068FC
:1027C000016821F00101016000207047802141650E
:1027D00001207047B0B5002840D090F8351002298C
:1027E00004BF0220B0BD02686FF00F034AF6AB21B0
:1027F000D2F800C053FA82F5CAF6AA21A5FB011E41
:102800002CF00101116000212123116051609160C1
:10281000D160116153614AF2F0734FEA1E1CC0F699
:10282000010313F80C3040F2FF34A2435F2D4FF048
:102830003F0588BF0432C0E9162305FA03F3C0E957
:102840000F11C0E91111C0E913119360416580F8BF
:10285000351080F834100846B0BD00BF0120B0BD6F
:10286000F0B581B004460020009040F2C010C2F2E2
:1028700000000268D4E9166048F2B51337680821F1
:10288000C1F64E3381403942A2FB03250CD02268A9
:1028900013685B0708D5136823F004031360B16065
:1028A000616D41F00101616501218140394208D02B
:1028B00022685269120604D5B160616D41F00201CF
:1028C000616504218140394208D02268126892076C
:1028D00004D5B160616D41F0040161651021814052
:1028E000394217D020680268120713D5B160026818
:1028F0000168520308D4C90508D4016821F0080111
:102900000160216C21B905E008033FD4216C09B1B5
:1029100020468847E16D202000FA01F23A4241D07A
:1029200020680368DB063DD5B26094F83530026854
:10293000052B1BD122F016020260426922F08002B0
:102940004261226C0AB9A26C1AB1026822F0080234
:1029500002603F208840B060012084F83500216D7E
:102960000020002984F8340052D157E00168520356
:1029700010D4C90512D4016821F0100101600120B2
:1029800084F83500002084F8340007E0A16C0029A9
:10299000BED1BFE7080301D4616C00E0E16B09B16F
:1029A00020468847606DC8B3606DC0072ED00520F3
:1029B00084F835002068A90A026822F0010202604A
:1029C000009A01328A4200921AD80268D20717D0C0
:1029D000009A01328A42009212D80268D2070FD0C0
:1029E000009A01328A4200920AD80268D20707D0C0
:1029F000009A01328A42009202D80268D207DFD1DF
:102A0000012084F83500002084F83400E16C29B1FD
:102A1000204601B0BDE8F040084700BF01B0F0BD5E
:102A20002DE9F041044600F015FA002C4ED0054681
:102A3000022084F835000020216884F834000868FA
:102A400020F0010008600868C00708D000F002FA12
:102A5000401B05286CD821680868C007F6D10868B3
:102A600048F23F02CFF21002D4E90135024004F1EE
:102A70000C0E9EE8C1511A432A4310433043384399
:102A800040EA0800626A40EA0C00042A40EA0E03A9
:102A900020D1D4E90A5E206B4EEA0302104308609D
:102AA0004869BEF1000F20F0030040EA050040F045
:102AB000040C15D0B8F5005F42D0B8F1000F51D129
:102AC000022D52D0012D47D055B94EE00120BDE86E
:102AD000F08100BF0B60486920F0070040EA020C5B
:102AE0006FF00F004AF6AB2250FA81F0CAF6AA2224
:102AF000A0FB02231A094AF2F073C0F601039A5CA4
:102B000040F2FF335F284FF03F00C1F814C021EAC4
:102B1000030100FA02F088BF0431C4E9161288608C
:102B2000002301220020636584F83520BDE8F08190
:102B3000032220230320636584F83520BDE8F0815B
:102B4000032DCDD8012240230120DFE805F0030E3C
:102B5000030500BFE7E700BFAEF1C070B0FA80F038
:102B6000400904E0032D04D3BAD1CEF3006000285D
:102B7000B6D0012240230120636584F83520BDE8EA
:102B8000F081000070B590F834C0BCF1010F46D060
:102B90004FF0010C80F834C0D0F858E090F835C000
:102BA000BCF1010F38D14FF0020C80F835C04FF066
:102BB000000CC0F854C0D0F800C08468056CC06D2B
:102BC000DCF80060402C26F48026CCF80060CCF8BD
:102BD00004300B4604BF13460A463F2101FA00F0B9
:102BE000CCF80830CCF80C20CEF80800DCF8000057
:102BF00040F01600CCF800002DB1DCF8000040F0E9
:102C00000800CCF80000DCF8000040F00100CCF82F
:102C10000000002070BD00BF002180F834100220A9
:102C200070BD0000B0B5044600F014F9054640F24E
:102C30007800C2F200000078611C18BF044400BF95
:102C400000F008F9401BA042FAD3B0BD022818BF1B
:102C5000704710B544F6D474C2F2000445F2B45182
:102C6000C2F2000120460EF05BFF2046BDE8104096
:102C70000EF066BF43F61441C4F201010A68024235
:102C800014BF08607047FFF7E1BF00002DE9F04F67
:102C900082B000F13E4241F6004502F1FF77C4F2F6
:102CA000020508224FEAB726A84208BF0722072ECE
:102CB00038BF4FEAB7224FF0010A002400274FF037
:102CC0000008009208E000BF023708F10108202F39
:102CD00004F1040400F0B4800E680AFA08F916EA58
:102CE000090FF1D0D1F804A00AF0030BABF10106F3
:102CF000012E17D80322866802FA07FECA6826EA60
:102D00000E06BA40324382604268CAF3001522EAD6
:102D1000090205FA08F54FEA480C6FEA0E062A4345
:102D200042600BE00322BA40D643BBF1030FBC461E
:102D300004D1BC464FF0030B22E000BFC2688D688F
:102D4000324005FA0CF52A43BBF1020FC26017D1DD
:102D50006FF0030202EA5802024404F01C030F253C
:102D6000D2F820E005FA03FA0D692EEA0A0E05FAF8
:102D700003F343EA0E031362D1F804A00AF0030B35
:102D800002680BFA0CF332401A431AF4403F4FF03A
:102D9000010A026098D0002243F644030192C4F273
:102DA00002031A6843F6004E42F480421A601A6821
:102DB000C4F2010E02F480420192019A28F003024B
:102DC0004FF6084C7244CFF6FF7C52F80C3004F0FA
:102DD0000C060F25B540AB43009D05FA06F63343BC
:102DE00042F80C30DEF808204B6842EA090643F648
:102DF0000C4CDD0258BF22EA0906CEF80860C4F286
:102E0000010CDCF800209D0242EA090658BF22EAC4
:102E10000906CCF80060DEF804209D0342EA0906AA
:102E200058BF22EA0906CEF80460DEF80020DB0372
:102E300042EA090658BF22EA0906CEF8006043E7D5
:102E400002B0BDE8F08F0000002A08BF09048161CC
:102E5000704700004BF27470C2F2000000687047C7
:102E600040F278004BF27471C2F20000C2F200012D
:102E700000780A68104408607047000080B543F687
:102E80000040C4F20200016841F400710160016871
:102E900041F480610160016841F4807101600320A8
:102EA00000F0C2F80F2000F005F800F05FF80020F5
:102EB00080BD000070B586B0002543F64001019545
:102EC000C4F202010A68044642F001020A6009687D
:102ED00001A801F0010101910199694601F09CF9F5
:102EE000049E002E18BF012601F0BCF94DF6836147
:102EF000B040C4F21B31A0FB01014FF0FF3000EBEA
:102F0000914145F2BC00C2F200004FF0804240F215
:102F1000E733C0E90021C0E902530561856102F091
:102F20005BF9054610B1284606B070BD45F2BC00FD
:102F3000C2F2000002F07CFA05460028F3D11C2002
:102F400000F036F80F2C0DD81C2021460022002559
:102F500000F03EF840F27C00C2F200000460284617
:102F600006B070BD0125284606B070BD82B00020B5
:102F700043F640010190C4F202014A6842F48042E3
:102F80004A604A6802F480420192019A00900868FF
:102F9000002240F08050086008680F2100F0805047
:102FA000009000986FF0010002B000F011B800002E
:102FB000002848BF704700F01F01012202FA01F10A
:102FC0004EF200124009CEF2000242F82010704783
:102FD00010B54EF60C5CCEF2000CDCF80030C3F3FA
:102FE000022E8EF00704042C28BF0424BEF1030334
:102FF0004FF0FF3E0EFA04F438BF0023A14399407E
:103000000EFA03F39A43114300F00F02043A6244AC
:1030100009010C3200F16043B0F1FF3FC8BF03F576
:103020006442117010BD00004EF60C51CEF200014A
:103030000A684FF6FF031A4060F30A2242F08060EC
:1030400040F0FD7008607047704700000268002083
:10305000516270472DE9F043D0F80090D9F8240070
:10306000A1B1D9F82830B1F1010800EB13435DD0CC
:10307000A8F10100C0B2032808F0030C0ED24FF0F3
:10308000010E0027BCF1000F33D14FE040EA0240AF
:10309000C9F828000020BDE8F08300BF08F0FC0E4E
:1030A00009F1F404002009F5827500BF54F8107F7F
:1030B000064603EB174046F00103DBB246F0020779
:1030C00055F82330FFB255F8277000EB134000EBA2
:1030D000174346F00300C0B255F82010301DC7B2A8
:1030E000774503EB1143E1D106F1050EBCF1000F6A
:1030F0001CD009EB8700D0F80401BCF1010F03EBF1
:10310000104313D05FFA8EF009EB8000D0F8040171
:10311000BCF1020F03EB104308D00EF10100C0B266
:1031200009EB8000D0F8040103EB104343EA0240AE
:1031300009EB8801C1F804010020BDE8F08300001C
:10314000D0F8E0040BF0BABF01EBC102D0F8E034D4
:1031500000EB8200026A18460BF012BF01EBC102BD
:10316000D0F8E03400EB8200D0F8602218460BF073
:1031700065BF0000D0F8E0040BF0A2BF10B5044614
:10318000080601F00F0000EBC00104EB810205D43A
:1031900002F51571002382F8553203E0012302F194
:1031A0001401537594F894240870012A04BF022076
:1031B00010BD2068012284F894240CF095FD0020B5
:1031C00084F8940410BD0000B0B50279044601F003
:1031D0000F00904284BF0120B0BD09060AD400EB65
:1031E000C00104EB810202F51571002382F855320B
:1031F00008E000BF00EBC00104EB8102012302F1F3
:103200001401537594F894240025012A8D700870D8
:1032100004BF0220B0BD2068012284F894240DF080
:1032200051F8284684F89454B0BD000001F00F0115
:1032300001EBC10100EB8100D0F86802704700008B
:10324000B0B50546080601F00F0000EBC00105EB24
:10325000810C05D40CF5157100248CF8554204E05E
:1032600001240CF114018CF815404C786FF3DF2227
:10327000002C08708A600B7118BF4883022B04BFB2
:103280000020487195F89404012804BF0220B0BDC5
:103290002868012285F894240CF094FB002085F81E
:1032A0009404B0BD10B501F00F0404EBC40100EBB1
:1032B000810E4FF0000CCEF868C28EF855C290F81F
:1032C00006C0CEF86022CEF86432BCF1010F8EF851
:1032D000544208BFCEF8702200680EF515716246A0
:1032E0000DF038F8002010BDB0B50446007901F0AB
:1032F0000F05854284BF0120B0BD08060AD401EB4A
:10330000C10004EB800000F51571002280F8552201
:1033100008E000BF05EBC50004EB8000012200F1CE
:103320001401427594F89404012201288A700D70EA
:1033300004BF0220B0BD206884F894240CF0EAFF9A
:1033400025B1002084F89404B0BD00BF2068A179A5
:1033500004F29C420CF088FF002084F89404B0BD75
:1033600080B501F00F0C0CEBCC0100EB810E714627
:1033700001F814CF4FF0000CC1F814C04FF0010C4D
:1033800081F801C090F806C0CA60BCF1010F0B6162
:1033900008BFCEF83020006862460CF0DBFF00204A
:1033A00080BD00002DE9F04F8BB0056882462846AD
:1033B0000DF0F2F910B10BB0BDE8F08FDAF80000B3
:1033C0000DF018FA0028F6D0D5F80808C0F30D2142
:1033D000DAF80000CAF8D4140DF00CFA0146DAF855
:1033E0000000890703D5416901F00201416105F53B
:1033F000006103910DF0FEF90146DAF80000C906FC
:1034000005953BD5816921F0100181612C6AC4F3D7
:103410004340062804F00F0518D0022827D147F6AC
:10342000F07014EA000622D005EBC5000AEB800715
:10343000D7F860123409059822460DF0DFF9D7F865
:10344000600200EB1610C7F8600207E005980AF268
:103450009C4108220DF0D2F9C4F30A1405EBC50013
:103460000AEB8000D0F868122144C0F86812DAF83C
:103470000000816941F010018161059D0DF0BAF9EC
:103480000003CDF828A040F1ED80DAF800000DF03F
:103490008FF9002800F0E68006460AF29C400AF503
:1034A0001D784FF430644FF0000B09901BE000BF13
:1034B0002819022181605FEA8A6042BF2819202111
:1034C00081605FEA8A40DDF828A042BF28194FF4E6
:1034D000005181600BF1010B760804F1200408F122
:1034E000240800F0BF80F007F4D0DAF800005FFA9B
:1034F0008BF949460DF076F98246C00762D028194B
:10350000012181600A9F38682118036C8A68BF799D
:10351000012F29D1170735D4970600F19B8012F0AF
:10352000280F4FD143F20B07C4F65477BB4202D3A6
:1035300012F400422FD1D8F800200969BBF1000F26
:103540006FF3DF41A2EB010148F80C1C35D10A9B57
:10355000D3F86422002A00F08380D3F86002084484
:10356000C3F8600229E000BF43F20B07C4F65477AA
:10357000FF37BB4216D110040DD4900644BF202063
:1035800088601AE043F20B00C4F65470834219D3EA
:1035900012F4004016D04FF4004088605FEA0A70D1
:1035A00013D437E0BBF1000F07D10A99D1F86412A8
:1035B00019B90021099A0CF057FE0A984946FFF7FD
:1035C000CDFD00BF5FEA0A7024D52819082181606B
:1035D0000A9843F20B020068C4F65472056C20444A
:1035E0008168571EBD4205D911F400411CBF4FF43C
:1035F000004181600A9800F01DFDBD42059D09D97A
:103600000A988079012805D10A98099A0068012151
:103610000CF02AFE5FEACA6042BF281910218160BF
:103620005FEA8A707FF547AF6869000604D50399A1
:10363000486840F48060486018F81D0C01287FF449
:1036400037AF002008F81D0C0A98494600F042FBED
:103650002EE700BF202088605FEA0A70B5D4D9E762
:103660000121A7E7DAF800000DF0C4F8039E40033B
:1036700040F1DE80DAF800000DF092F8002800F04A
:10368000D78005F5106104910AF29C414FF0000BC0
:10369000029104E040080BF1010B00F0C980C10762
:1036A000F8D00690DAF800005FFA8BF109910DF07E
:1036B00087F8049F0446C00728D00BF00F00716BF9
:1036C000012202FA00F021EA0000706307EB4B10C0
:1036D00082609AF80600012814D10BEBCB000AEBAC
:1036E0008000D0E90712BBF1000F1144016209D13B
:1036F000DAF8240030B9DAF80000029A01210CF05F
:10370000B3FD00BF09995046FFF71EFD200742BFD9
:1037100007EB4B1008218160E00642BF07EB4B101E
:1037200010218160600642BF07EB4B104021816091
:10373000A00715D5284659460CF0C0FF0BEBCB006F
:103740000AEB800010F8171F012905D10021017034
:103750000999504600F0BAFA07EB4B10022181603C
:103760002006069896D50BEBCB010AEB8104A14607
:1037700059F8242FC84658F8047FBA428AD3DAF899
:10378000005054F81C3FD11B994288BF1946089538
:1037900005EB4B1CDCF818590331ADB2B5EB910FBA
:1037A00028BFBA4204D8059DBA423FF673AF33E052
:1037B00004F1040ADAF800100CF51065079400BF54
:1037C0000A98D41B9C42867988BF1C46DDE9080212
:1037D000A3B200960DF0BEFADAF80000E31C01195E
:1037E000D8F80000CAF800100719C8F80070AA69D4
:1037F00096B2D9F80020B6EB930F28BFBA4203D98E
:1038000007980368DCE700BFDDF828A0039EDDE928
:103810000550BA423FF63EAF089F0BF00F02D7F8B3
:103820003418012303FA02F29143C7F8341831E740
:10383000DAF800000CF0DEFF002823D4DAF80000EC
:103840000CF0D8FF00053AD4DAF800000CF0D2FFF3
:10385000C00444D5D5F80408102120F00100C5F8B3
:103860000408DAF800000CF029FF9AF80400002898
:1038700000F0F580411E032900F0030C32D2002134
:103880009CE000BF706820F0010070609AF8CC04E2
:10389000012807D100208AF8CC0450460021FFF708
:1038A000D3FB02E0504600F0A9FBDAF800004169C2
:1038B00001F0004141610CF09DFF0005C4D5B068E6
:1038C000C00702D0504600F0DDFBDAF80000416985
:1038D00001F4006141610CF08DFFC004BAD4DAF844
:1038E0000000EAE000F0FC0E05F536634FF6A05646
:1038F0004FF6C0554FF6E0544FF6006000214FF6EA
:103900007F37CFF6FF76CFF6FF75CFF6FF74CFF691
:10391000FF7000BFA3F5187297609A59043122F422
:1039200000129A5143F8587C53F8602C8E4522F4CB
:10393000001243F8602C53F8602C42F0006243F808
:10394000602CA3F5107297605A5922F400125A5154
:1039500043F8387C53F8402C22F4001243F8402CF2
:1039600053F8402C42F0006243F8402CA3F5087253
:1039700097601A5922F400121A5143F8187C53F830
:10398000202C22F4001243F8202C53F8202C42F073
:10399000006243F8202CA3F5007297601A5822F4B5
:1039A00000121A509F601A6822F400121A601A68F6
:1039B00042F000621A6003F18003ABD1059D039EC3
:1039C000BCF1000F4BD005F5106000EB41124FF633
:1039D0007F334F019360C65905F5306226F4001617
:1039E000C65102EB4116B360D659BCF1010F26F463
:1039F0000016D651D65946F00066D651039E2ED0F9
:103A00004F1C00EB47157E01AB60855902EB471751
:103A100025F400158551BB609359BCF1020F23F4C6
:103A200000139351935943F000639351039E16D0B2
:103A3000023100EB41174FF67F364B01BE60C7588D
:103A400027F40017C75002EB41108660039ED05840
:103A500020F40010D050D05840F00060D050F069F1
:103A600040F00110F0619AF80F0048B1D6F88400D8
:103A700040F00B00C6F8840006F1440007E000BFE8
:103A8000706942F22B010843706106F11000016871
:103A90000AF29C4241F00B010160306820F4FE60A4
:103AA0003060DAF800009AF806100CF0DDFBDAF866
:103AB0000000416901F4805141610CF09BFE014618
:103AC000DAF8000089041AD50BF0C2FFDAF800001A
:103AD0000CF054FEDAF800408AF8070000F0BCFB56
:103AE0009AF80720014620460DF0A4F8504600F051
:103AF0006FFADAF80000416901F4005141610CF0FD
:103B000079FE000706D4DAF800000CF073FE000618
:103B10000DD435E0504600F075FADAF8000041693E
:103B200001F0080141610CF065FE000628D50599F9
:103B3000886920F0800088619AF8040002281FD369
:103B40000AF27B24012504E00135854204F12404B6
:103B500016D221780129F7D105F00F0000EBC00043
:103B60000AEB80022806DAF8000002F1140158BFBF
:103B700002F515710CF012FD9AF80400E4E700BF9D
:103B8000DAF800000CF036FEC0024BD4DAF8000080
:103B90000CF030FE059D80027AD59AF804000228C8
:103BA00027D3013805F532610AF51F72012305E0BC
:103BB000013801F1200102F124021AD00F681678B1
:103BC000012EF5D1B7F1FF3FF2DCDAF8D46486EAD2
:103BD0001747FF07ECD102F8013CAF6947F08007B7
:103BE000AF616F693F06E3D40399486840F4007001
:103BF0004860DAF80000416901F4001141610CF0FD
:103C0000F9FD40004AD55046FFF79AFADAF800006D
:103C1000416901F0804141610CF0ECFD40077FF506
:103C2000CAAB42E09AF80400022825D305990AF1AC
:103C30003C0501F512640126012705E00137203417
:103C4000874205F1240517D221682A78012AF5D187
:103C5000B1F1FF3FF2DC07F00F0000EBC0000AEB10
:103C60008001DAF80000143105F8016C0CF096FCC4
:103C70009AF80400E2E700BFDAF80000416901F4B5
:103C8000801141610CF0B6FD059D80023FF585AFC6
:103C9000DAF800000CF0AEFD4000B4D4DAF8000011
:103CA0000CF0A8FD40077FF586ABDAF80000446809
:103CB000610704D55046FFF75DFADAF80000416865
:103CC000214341600BB0BDE8F08F0000D0F8E00464
:103CD0000BF050BAD0F8E0040BF060BAF0B581B048
:103CE000002800F025810446056890F8950428B95D
:103CF000002084F89404204600F02AF90320B5F14E
:103D0000A04F84F8950404BF0020A07120680CF037
:103D1000A3FA94E80F00267C00960BF0A9FE002879
:103D200040F00381206800210CF0BEFD002840F027
:103D3000FC802179002900F0F180A1F1010C01F053
:103D4000030EBCF1030F4FF0000045D301F0FC055A
:103D500004F19A02012600235F1C02F8627C22F81B
:103D6000487C9F1C02F8863C22F86C3C02F83E7CA2
:103D700022F8247CDF1C043302F8856C02F8820CE4
:103D800042F87E0C42F87A0C42F8760C02F8616C2C
:103D900002F85E0C42F85A0C42F8560C42F8520CEB
:103DA00002F83D6C02F83A0C42F8360C42F8320C3C
:103DB00042F82E0C02F8196C02F81A7C178002F8EF
:103DC000160C42F8120C42F80E0C42F80A0CAB42E8
:103DD00002F19002C0D11846BEF1000F2CD000EBCA
:103DE000C00204EB820501230022BEF1010F6B75B6
:103DF0002875E8852A76C5E907226A621CD0451C29
:103E000005EBC50604EB8606BEF1020F737535752A
:103E1000F5853276C6E9072272620DD0023000EBDA
:103E2000C00204EB820201231075D0850020537577
:103E30001076C2E90700506200296FD0BCF1030F71
:103E40004FF0000233D301F0FC0004F5347100237D
:103E50005F1C01F8587C9F1C01F87C3C01F8347C05
:103E6000DF1C043301F87B2C01F8782C41E91D227A
:103E700041F86C2C01F8572C01F8542C41E914221C
:103E800041F8482C01F8332C01F8302C41E90B2281
:103E900041F8242C01F80F2C01F8107C01F80C2CAF
:103EA00041E9022241F8902B8342D1D11A46BEF15A
:103EB000000F33D002EBC20004EB80010020BEF102
:103EC000010F81F8550281F8542281F85802C1E9A6
:103ED0009700C1F8640221D0511C01EBC10304EB2F
:103EE0008303BEF1020F83F8550283F8541283F85E
:103EF0005802C3E99700C3F864020FD0901C00EB8E
:103F0000C00104EB8101002281F8552281F854029E
:103F100081F85822C1E99722C1F8642294E80F0081
:103F2000277C00970BF042FF30B1022084F8950403
:103F30000125284601B0F0BD00250120657484F8F4
:103F4000950420680BF022FF284601B0F0BD000068
:103F5000B0B586B00068B0F1A04F01D006B0B0BDDA
:103F6000002543F630040195C4F20204206801A93B
:103F700040F001002060206800F0010001900198ED
:103F80004FF4C05001900220CDE9020503200490B7
:103F90000A2005900020C4F20200FEF777FE606858
:103FA000052140F08000606000956069002240F4C7
:103FB00080406061606900F4804000900098432078
:103FC000FFF706F84320FEF7F3FF06B0B0BD000090
:103FD00010B50446C07928B1022818BFFDF790FA41
:103FE000012100E00021D4F8E0040BF05DF9D4F8E1
:103FF000E004BDE810400BF00BB90000D0F8E0047D
:104000000BF03AB9D0F8E0040BF040B910B5044613
:1040100090F89404012804BF022010BD012084F808
:104020009404617420680CF0F3FD002084F894047B
:1040300010BD0000D0F8E02400F29C4110460BF0C7
:1040400049B9000010B5044690F89404012804BF53
:10405000022010BD2068012184F89414C16849062B
:1040600006D5617B012903D1816B41F480318163E5
:104070000CF01CFB20680BF079FE002084F89404FF
:1040800010BD000010B50446D0F8E0040BF078F93C
:104090002068D0F8001E41F00101C0F8001EE07A4F
:1040A000002808BF10BD4EF61050CEF20000016887
:1040B00041F00601016010BD2DE9F041002800F03B
:1040C0008B8043F60808C4F202080446D8F8F803C7
:1040D0000D4600F00700884207D288F8F853D8F858
:1040E000F80300F00700A84276D12068810717D5B1
:1040F000410705D5D8F8001041F4E051C8F8001088
:10410000010705D5D8F8001041F46041C8F8001047
:10411000D8F80010A26821F0F0011143C8F800108F
:10412000C0073FD1D8F8F80300F00700A84207D92C
:1041300088F8F853D8F8F80300F00700A8424BD1EC
:104140002068410707D5D8F80010E26821F4E05153
:104150001143C8F80010000708D5D8F800002169FD
:1041600020F4604040EAC100C8F8000000F0A2F866
:10417000D8F800104AF28C22C1F30311C0F60102F4
:10418000515C40F2C01220FA01F140F27C00C2F210
:1041900000000068C2F200021160FEF78BFE0020F2
:1041A000BDE8F0816068811E022907D258F8081C1A
:1041B00089015CBF0120BDE8F08111E0012807D131
:1041C00058F8081C89035CBF0120BDE8F08107E0B6
:1041D00058F8081C890703D40120BDE8F08100BF0E
:1041E000D8F8001021F003010843C8F80000FEF7DA
:1041F00031FE064641F28837D8F80000616800F0C9
:104200000C00B0EB810F8DD0FEF724FE801BB8426E
:10421000F2D90320BDE8F0810F22026043F60802C4
:10422000C4F20202136803F003034360136803F04F
:10423000F0038360136803F4E053C360D2F800C056
:104240004FF4E05303EADC030361D2F8F80300F013
:10425000070008607047000040F2C010C2F2000082
:104260000068704740F2C01043F60801C2F2000037
:10427000C4F20201006809684AF29C22C1F382215B
:10428000C0F60102515CC8407047000040F2C01007
:1042900043F60801C2F20000C4F202010068096896
:1042A0004AF29C22C1F34231C0F60102515CC8407F
:1042B0007047000010B543F60404C4F202046068BD
:1042C00000F00C0008280BD0042819BF42F200406F
:1042D000C0F2F40041F60030C0F2B70010BD00BFDC
:1042E000206821682368490241F60031C0F2B70115
:1042F00000F03F02C3F388105CBF42F20041C0F2FD
:10430000F401A1FB00010023FBF7D2FF2168022288
:10431000C1F3014102EB4101B0FBF1F010BD00001F
:104320002DE9F04182B000286AD00446007843F6B7
:104330000006C007C4F202060BD0B06800F00C0003
:10434000042840F0A1803068800302D5606800280E
:1043500056D0207880071AD5B06810F00C0F09D01D
:10436000B06800F00C00082840F0A8807068400297
:1043700000F1A4803068800702D5E06801283FD1B1
:104380003068216920F0F80040EAC10030602078F0
:10439000000739D4207840074ED4A5695DB3B068D2
:1043A00000F00C00082840F0BD80012D28D0706876
:1043B000E16900F480028A4222D1216A00F03F02C2
:1043C0008A421DD147F6C071626A0140B1EB821F7B
:1043D00016D1A26A0023CFF6FF7303EBC23200F4BA
:1043E00040316FF30F0291420AD1E16A00F0706030
:1043F000B0EB016F04D1002002B0BDE8F08100BF36
:10440000012002B0BDE8F0816069002840F20000A0
:10441000C4F2472076D00121C0F8801EFEF71AFDB5
:10442000054600BF706F8007B4D4FEF713FD401B34
:104430000228F7D9DDE000BF306C10F080580AD1B7
:1044400000200190306C40F080503064306C00F0FF
:1044500080500190019847F20007C4F200073868C5
:10446000C00541D4386840F480703860FEF7F2FC33
:10447000054600BF3868C00536D4FEF7EBFC401B8C
:104480000228F7D9B5E000BFB06800F00C0008289A
:1044900003D1706840023FF556AF6068B0F5803FC9
:1044A00007D0B0F5A02F40F08D80306840F4802018
:1044B0003060306840F4803030608DE0E068002883
:1044C00052D00020C4F2472001210160FEF7C2FC57
:1044D000054600BF306880073FF552AFFEF7BAFCD3
:1044E000401B0228F6D984E0A068012805D00528E1
:1044F0004ED1306F40F004003067306F40F0010063
:1045000030674FE00021C0F8801EFEF7A3FC05468F
:10451000706F80077FF53EAFFEF79CFC401B0228C2
:10452000F6D966E00027C4F2472700203866FEF778
:1045300091FC022D05460BD1306880015ED5FEF757
:1045400089FC401B02284FF00300F5D954E700BF57
:10455000306880017FF54FAFFEF77CFC401B0228DE
:104560004FF00300F4D947E70020C4F247200021B0
:104570000160FEF76FFC0546306880077FF507AFE6
:10458000FEF768FC401B02284FF00300F4D933E724
:10459000316F002821F001013167316F21F00401F2
:1045A00031674DD0FEF756FC054641F2883700BF13
:1045B000306F800756D4FEF74DFC401BB842F7D948
:1045C00017E000BF3168002821F480313160316884
:1045D00021F4802131604FD0FEF73CFC054600BF3E
:1045E000306880033FF5B5AEFEF734FC401B64280D
:1045F000F6D9032002B0BDE8F08100BF04F11C052C
:104600002FCD08430021CFF6FF7140EA821001EB65
:10461000C3316FF30F0140EA056008437060012069
:104620003866FEF717FC0446306880013FF5E3AEBC
:10463000FEF710FC001B02284FF00300F4D9DBE664
:10464000FEF708FC054641F2883700BF306F80074F
:1046500008D5FEF7FFFB401BB8424FF00300F5D929
:10466000CAE600BFB8F1000F7FF497AE306C20F0BF
:104670008050306491E600BFFEF7ECFB054600BFBA
:10468000306880037FF565AEFEF7E4FB401B6428CD
:104690004FF00300F4D9AFE690F8510070470000E6
:1046A00070B538B10446406A30B10020206104F191
:1046B000140007E0012070BD6068B0F5827F03D070
:1046C00004F11C00002101600026A66294F851004C
:1046D00020B9204684F8506000F03CF8022084F8AD
:1046E000510094E80F0001F48271056802F404425D
:1046F00025F040050560114403F40062236911446C
:1047000003F002026369114403F00102A369E56941
:10471000114403F40072114405F03802256A114473
:1047200005F08002A56A114305F4005211430160AF
:10473000626A042101EA134102F01002114441604F
:10474000C16921F40061C1610120666584F85100EE
:10475000304670BD2DE9F04F87B00446216843F61E
:104760000002C4F2000200209142CDE90500CDE92B
:104770000300029000F0928043F20000C4F20100B6
:10478000814240F0B480002743F630000197C4F224
:104790000200416940F2004541F4805141614169A4
:1047A000C4F2020501F48051019101990197016859
:1047B00002AE41F00201016001684FF0020901F010
:1047C000020101910199019701684FF0010A41F03E
:1047D0000101016000684FF0030B00F0010001903F
:1047E0000198182002904FF0050828463146CDF870
:1047F0000C90CDF810A0CDF814B0CDF81880FEF7CD
:1048000045FA802002A981E8010ECDF8188046F211
:104810001048A5F580603146C4F20208FEF736FA6A
:1048200044F23875C2F200054FF440304FF0C066D4
:104830004FF48069C5E908072846C5E90086C5E93F
:104840000277C5E90497C5E90677FEF7E9F800287D
:1048500018BFFCF755FEE564AC6344F2987508F1A7
:104860004800C2F200054021C5E9000605F1080034
:1048700080E882024FF40030C5E908072846C5E900
:104880000577EF61FEF7CCF8002818BFFCF738FE7B
:10489000A564AC6307B0BDE8F08F00BF43F63001FC
:1048A0000190C4F202010A6942F480420A610A6975
:1048B00002F480420192019A01900A6842F00202D9
:1048C0000A60096801F00201019101994FF4604109
:1048D00002910221CDE903100320059005200690E6
:1048E00040F20040C4F2020002A9FEF7CFF907B07F
:1048F000BDE8F08F2DE9F04182B0044690F85100F8
:10490000012818D10E4600294FF0010000F0E9807F
:104910001746002A00F0E58060681D46B0F5827FEA
:1049200003D1A068002800F0B580FEF793FA94F850
:104930005010012904D1022002B0BDE8F08100BF6F
:104940008046012084F850000420002184F85100A2
:104950006165A663A787E7872163A186E186A268D0
:104960002068B2F5004F2164616439D001684906BE
:1049700041D5E168002945D0E18F002974D0691C38
:104980001BD000BF8168C90706D1FEF763FAA0EB10
:104990000800A84208D3A7E0C068A16B21F8020B69
:1049A000A163E08F0138E087E08F00285CD02068A9
:1049B0008168C907E9D0EFE720688168C90703D19A
:1049C000FEF748FA08E000BFC068A16B21F8020BAF
:1049D000A163E08F0138E087E08F0028ECD143E04D
:1049E000016821F040010160016821F4804101600B
:1049F00001684906BDD4016841F040010160E168E9
:104A00000029B9D1E18F79B3691C1AD08168C9072F
:104A100006D1FEF71FFAA0EB0800A84209D363E015
:104A2000007BA16B0870A06B0130A063E08F0138A0
:104A3000E087E08FC0B120688168C907E9D0EFE75F
:104A400020688168C90703D1FEF704FA09E000BFB6
:104A5000007BA16B0870A06B0130A063E08F013870
:104A6000E087E08F0028EBD16068B0F5827F0ED13F
:104A7000A068B0F5004F02D0B0F5806F18D1216862
:104A8000B0F5806F0A6822F040020A6010D120461B
:104A900001210FE0042084F85100204631463246BF
:104AA0003B46009500F06AF902B0BDE8F08100BF16
:104AB0002046802100222B46CDF8008008F01EFD04
:104AC00028B1606D40F02000606520206065012005
:104AD00084F85100002084F85000606D002818BF51
:104AE000012002B0BDE8F081012084F851000020CF
:104AF00084F85000032002B0BDE8F0812DE9F041B8
:104B000084B01D4616460F460446FEF7A3F994F8F6
:104B1000511001290ED18046002F4FF0010018BF1F
:104B2000002E03D104B0BDE8F08100BF94F850001E
:104B3000012803D1022004B0BDE8F081012084F8EF
:104B400050000320002184F8510061652763A68688
:104B5000E686A163A187E187A0682164B0F5004FD4
:104B60002068616407D1016821F04001016001689B
:104B700041F4804101600168490603D4016841F0B5
:104B8000400101606168731EE268B1FA81F1B3FA15
:104B900083F349095B09B2F5006F41EA03013BD198
:104BA00031B137F8021BC1602763E18E0139E1861C
:104BB000E18E002972D0691C1BD000BF8168890773
:104BC00006D4FEF747F9A0EB0800A84208D346E058
:104BD000216B31F8022BC2602163E08E0138E08640
:104BE000E08E00285AD0206881688907E9D5EFE770
:104BF00020688168890703D4FEF72CF908E000BF1C
:104C0000216B31F8022BC2602163E08E0138E0860F
:104C1000E08E0028ECD141E039B139780173206B86
:104C200001302063E08E0138E086E08EB0B3681C6E
:104C30000BD123E0216B09780173206B01302063D5
:104C4000E08E0138E086E08E40B3206881688907F5
:104C5000F0D4FEF7FFF8A0EB0800A842F3D3012040
:104C600084F85100002084F85000032004B0BDE80F
:104C7000F08100BFFEF7EEF8E08E78B12068816821
:104C80008907F7D5216B09780173206B0130206308
:104C9000E08E0138E086E08E0028EFD12046022128
:104CA00001222B46CDF8008008F028FCE0B1606DB1
:104CB00040F02000606520206065A06838B90020C1
:104CC00002902068C16802918068029002980120D9
:104CD00084F85100002084F85000606D002818BF4F
:104CE000012004B0BDE8F08140F2C010C2F2000023
:104CF000006849F68171C1F25E61A0FB0101480DB7
:104D00004FF47A71484303906068B0F5827F0BD10D
:104D10002046802100222B46CDF8008008F0EEFBD3
:104D20000028C4D1C9E700BF03980028C5D0039864
:104D300001380390206880680006BED503980028DB
:104D4000BBD0039801380390206880680006B4D572
:104D500003980028B1D00398013803902068806838
:104D60000006AAD503980028A7D00398013803901D
:104D7000206880680006D7D49FE700002DE9F04343
:104D800083B01E4615460F460446FEF763F894F8B6
:104D900051108146012909D1002F4FF0010018BFA1
:104DA000002D0FD103B0BDE8F08300BF6068B0F5FF
:104DB000827F0DD1A06800284FF0020008BF0429AF
:104DC000F0D1E9E7002EEDD094F85000012803D18E
:104DD000022003B0BDE8F083012084F8500094F86D
:104DE0005100002104281CBF052084F85100616592
:104DF000A563E687A6872763E6862068A6862164E2
:104E000061640168490603D4016841F04001016012
:104E10006168731EE268B1FA81F1B3FA83F3DDF8D9
:104E2000288049095B09B2F5006F41EA030165D1A9
:104E300031B137F8021BC1602763E08E0138E0868C
:104E4000012518F1010032D102E000BFFEF702F89F
:104E5000E08E18B9E08F002800F0B88020688168E3
:104E600089070CD5E18E51B1012D08D1216B0025A8
:104E700031F8022BC2602163E18E0139E18681683D
:104E8000C907E3D0E18F0029E0D0C068A16B0125FC
:104E900021F8020BA163E08F0138E087D6E700BF5D
:104EA000FDF7D8FFA0EB0900404580F0A580E08E1B
:104EB00018B9E08F002800F0898020688168890790
:104EC0000CD5E18E51B1012D08D1216B002531F8AF
:104ED000022BC2602163E18E0139E1868168C90736
:104EE000DED0E18F0029DBD0C068A16B012521F85D
:104EF000020BA163E08F0138E087D1E739B139783F
:104F00000173206B01302063E08E0138E0860125BB
:104F100018F1010032D101E0FDF79CFFE08E10B9DD
:104F2000E08F002852D02068816889070ED5E18E75
:104F300061B1012D0AD1216B002509780173216B24
:104F4000206801312163E18E0139E1868168C9075A
:104F5000E2D0E18F0029DFD0C068A16B0125087085
:104F6000A06B0130A063E08F0138E087D4E700BF79
:104F7000FDF770FFA0EB090040453DD2E08E08B977
:104F8000E08F18B32068816889070ED5E18E61B182
:104F9000012D0AD1216B002509780173216B20684E
:104FA00001312163E18E0139E1868168C907DFD0D3
:104FB000E18F0029DCD0C068A16B01250870A06BCF
:104FC0000130A063E08F0138E087D1E7204602215D
:104FD00001224346CDF8009008F090FAB0B1606D20
:104FE00040F02000606520206065002084F85000BB
:104FF000012003B0BDE8F083012084F851000020B7
:1050000084F85000032003B0BDE8F08340F2C010E4
:10501000C2F20000006849F68171C1F25E61A0FB36
:105020000101480D4FF47A71484302906068B0F571
:10503000827F21D12046802100224346CDF8009076
:1050400008F05CFA0028CAD1A06838B900200190A5
:105050002068C1680191806801900198012084F85E
:105060005100002084F85000606D002818BF012016
:1050700003B0BDE8F08300BF02980028E4D0029896
:1050800001380290206880680006DDD5029800286B
:10509000DAD0029801380290206880680006D3D5E3
:1050A00002980028D0D002980138029020688068C9
:1050B0000006C9D502980028C6D00298013802908F
:1050C000206880680006D7D4BEE700007047000063
:1050D00070470000B0B590F83C20012A04BF0220C0
:1050E000B0BD01F108053CCDD1E900CE23F47C53DD
:1050F00022F470521A432EF4F0431A432CF4E04386
:105100001A4324F4C0431A432A43C96922F4804253
:10511000036811435964002180F83C100846B0BD73
:1051200010B590F83C20012A4FF0020251D080F8CF
:105130003D200268D2F804E0D2F808C00C682EF0D6
:105140007003234341F2FF74C4F20004A24253608F
:105150000EDC40F2FF73C4F200039A4216DCB2F197
:10516000804F2BD040F20043C4F2000324E000BF84
:1051700040F2FF33C4F201039A4213DC41F600030C
:10518000C4F200039A4219D0002313E040F6000352
:10519000C4F200039A4211D040F60043C4F2000367
:1051A0000AE000BF44F20003C4F201039A4205D0B2
:1051B00040F20043C4F201039A4204D149682CF042
:1051C0008003194391600121002280F83D1080F88E
:1051D0003C20104610BD0000002804BF012070478D
:1051E00010B5044690F83D0028B9002084F83C0032
:1051F000204600F01FF8022084F83D002068211DA1
:1052000008F0D4FD012084F8460084F83E0084F8BC
:105210003F0084F8400084F8410084F8420084F89C
:10522000430084F8440084F8450084F83D000020E1
:1052300010BD0000F0B581B0044600684FF6FF7164
:10524000C4F2000188422DDC40F20041C4F20001AA
:10525000884249D040F60001C4F2000188425DD086
:1052600041F20041C4F20001884240F0DE8000209B
:10527000009043F64000C4F202000168002241F0B1
:10528000200101600068052100F0200000900098D6
:105290003720FDF79DFE372001B0BDE8F040FDF757
:1052A00087BE00BF44F20041C4F2010188426BD0C6
:1052B00040F20041C4F20101884200F07F800021E9
:1052C000C4F20101884240F0B0800020009043F613
:1052D0004000C4F20200416841F0010141604068B1
:1052E00000F001005DE000BF0020009043F64000A8
:1052F000C4F202000168002241F00201016000686E
:10530000052100F00200009000981D20FDF760FECE
:105310001D2001B0BDE8F040FDF74ABE002043F675
:1053200040010090C4F202010A6844F2F87542F0AC
:1053300004020A600968C2F2000501F0040100914C
:10534000009946F2B801C4F202014FF080624FF4B6
:105350008063C5E90012C5E9020005F11001C5E945
:105360000700686228464FF4006C4FF4005E81E845
:105370000850FDF755FB002818BFFCF7C1F8E5629F
:10538000AC6301B0F0BD00BF0020009043F64000C8
:10539000C4F20200416841F400314160406800F409
:1053A000003000900098192005210022FDF710FE22
:1053B000192001B0BDE8F040FDF7FABD002043F62A
:1053C00040010090C4F202014A6844F6580542F0D8
:1053D00002024A604968C2F2000501F00201009130
:1053E000009946F2B801C4F2020101F562714FF072
:1053F0006062402385E80E0005F10C014FF4806CDB
:105400004FF4006E4FF400564FF4807781E801505E
:10541000C5E908002846C5E90667FDF701FB002835
:1054200018BFFCF76DF86562AC6301B0F0BD000019
:1054300090F83D1001291CBF01207047022180F81F
:105440003D10006841F2FF72C168C4F20002904250
:1054500041F00101C1600DDC40F2FF71C4F20001B6
:10546000884215DCB0F1804F2AD040F20041C4F2EE
:10547000000123E040F2FF31C4F20101884213DC55
:1054800041F60001C4F20001884219D0002113E066
:1054900040F60001C4F20001884211D040F60041FC
:1054A000C4F200010AE000BF44F20001C4F20101AD
:1054B000884205D040F20041C4F20101884206D181
:1054C000816801F00701062904BF002070470168C8
:1054D00041F00101016000207047000080B590F8A4
:1054E0003C20012A4FF0020200F0C28080F83D20EB
:1054F000D0F800C04FF67772DCF8083023EA0202D9
:10550000CCF808200B684F2B28DC1F2B44DD202B08
:1055100045D0302B43D0402B40F0AC80D1F804E094
:10552000C968DCF82030DCF8202022F00102CCF839
:105530002020DCF8182022F0F00242EA011123F0CA
:105540000A0242EA0E02CCF81810CCF82020DCF84F
:10555000081041F0470121F0300180E06F2B27DD7A
:10556000B3F5005F48D0B3F5805F7AD0702B40F080
:105570008180D1E901E3C968DCF8082043EA0E0321
:1055800022F47F4243EA01211143CCF80810DCF8F1
:10559000081041F0770162E00BB1102B6AD1DCF802
:1055A000081021F07001194341F0070157E000BFD6
:1055B000502B35D0602B5DD1D1F804E0C968DCF800
:1055C0002030DCF8202022F01002CCF82020DCF87B
:1055D000182022F4704242EA013123F0A00242EA8C
:1055E0000E12CCF81810CCF82020DCF8081041F08E
:1055F000670121F0100132E0D1E901E3C968DCF86C
:10560000082043EA0E0322F47F4243EA01211143BA
:10561000CCF80810DCF8081041F480411FE000BF0E
:10562000D1F804E0C968DCF82030DCF8202022F052
:105630000102CCF82020DCF8182022F0F00242EA27
:10564000011123F00A0242EA0E02CCF81810CCF83D
:105650002020DCF8081041F0570121F02001CCF89F
:1056600008100022012180F83D10002180F83C1034
:10567000104680BD0122F5E770470000704700002A
:1056800070B504460068C5680669B10716D515F0FF
:10569000020113D06FF002010161012121778069BD
:1056A000800703D02046FFF7E9FF05E0204600F021
:1056B0008FF8204600F0D0F900202077700719D528
:1056C00015F0040016D020686FF00401016102217A
:1056D0002177806910F4407F04D02046FFF7CEFF89
:1056E00006E000BF204600F073F8204600F0B4F951
:1056F00000202077300717D515F0080014D0206857
:105700006FF00801016104212177C069800703D08F
:105710002046FFF7B3FF05E0204600F059F8204689
:1057200000F09AF900202077F00619D515F0100046
:1057300016D020686FF01001016108212177C0693F
:1057400010F4407F04D02046FFF798FF06E000BF2A
:10575000204600F03DF8204600F07EF9002020773A
:10576000F00718BF15F0010002D1300609D412E08D
:1057700020686FF001010161204600F041FB300616
:1057800009D515F0800006D020686FF08001016116
:105790002046FFF79BFC700609D515F0400006D0A7
:1057A00020686FF040010161204600F073FBB006F5
:1057B00058BF70BD15F0200008D021686FF020029E
:1057C00020460A61BDE87040FFF782BC70BD000052
:1057D000704700002DE9F04190F83C30012B04BFE8
:1057E0000220BDE8F0814FEAB202032A00F2FC80F9
:1057F000DFE802F0023E7EBE036840F200471C6A0A
:105800001A6A24F0020422F001021A621A46D3F83E
:1058100004E052F818CF8E6843F48065C4F20107A3
:10582000BD4244EA060405D1CE6824F00C0426F0FB
:10583000040634430E68BD4207D1D1E905572EF462
:10584000407E45EA0E0545EA070E2CF07307374304
:10585000C3F804E09F614F6809695F631C629F6938
:1058600047F008079F619F6927F004079F61B1E037
:10587000036840F200481C6A1A6A24F0200422F0EF
:1058800010021A621A46D3F804E052F818CF8F6853
:1058900043F48065C4F20108454544EA071407D182
:1058A000CF686FF0400624F0C00406EA07163443C0
:1058B0000F68454507D1D1E905562EF4406E4EEAF2
:1058C000850545EA860E2CF4E64646EA0727C3F826
:1058D00004E09F614F6809699F631C629F6947F4F8
:1058E00000679F619F6927F480679F6171E000BF37
:1058F000036840F200481C6A1A6A24F4007422F417
:1059000080721A621A46D3F804E052F81CCF8F68EE
:1059100043F48065C4F20108454544EA072408D1F0
:10592000CF6840F2FF463F0224F4406427EA0606AF
:1059300034430F68454507D1D1E905562EF4405E42
:105940004EEA051545EA061E2CF073063743C3F8E8
:1059500004E0DF614F680969DF631C62DF6947F0BB
:105960000807DF61DF6927F00407DF6132E000BF6D
:10597000036840F20045D3F820C01A6A43F48067F8
:1059800022F480521A621A465C6852F81CEFD1F871
:1059900000808E68C4F20105AF4204D14D6924F441
:1059A000804444EA85142CF4005747EA06372EF465
:1059B000E64646EA08265C60DE614E6809691E64B8
:1059C0001F62DF6947F40067DF61DF6927F48067E2
:1059D000DF6109021368194311600021002280F879
:1059E0003C200846BDE8F0810121002280F83C20DF
:1059F0000846BDE8F0810000002804BF0120704780
:105A000010B5044690F83D0028B9002084F83C0009
:105A1000204600F01FF8022084F83D002068211D78
:105A200008F0C4F9012084F8460084F83E0084F8A8
:105A30003F0084F8400084F8410084F8420084F874
:105A4000430084F8440084F8450084F83D000020B9
:105A500010BD000070470000704700007047000054
:105A600041B1082910D0042914BF00F1410200F10E
:105A70003F020BE090F83E20012A1CBF0120704736
:105A8000022280F83E2013E000F140021278012A41
:105A90001CBF012070470222082907D0042914BF27
:105AA00080F8412080F83F2002E000BF80F84020CD
:105AB000006801F01F010122036A02FA01F123EAE2
:105AC00001020262026A114341F2FF72C4F2000253
:105AD000904201620CDC40F2FF71C4F20001884286
